{
  "_format": "hh-sol-artifact-1",
  "contractName": "EpicNFT",
  "sourceName": "contracts/EpicNFT.sol",
  "abi": [
    {
      "inputs": [],
      "stateMutability": "nonpayable",
      "type": "constructor"
    },
    {
      "anonymous": false,
      "inputs": [
        {
          "indexed": true,
          "internalType": "address",
          "name": "owner",
          "type": "address"
        },
        {
          "indexed": true,
          "internalType": "address",
          "name": "approved",
          "type": "address"
        },
        {
          "indexed": true,
          "internalType": "uint256",
          "name": "tokenId",
          "type": "uint256"
        }
      ],
      "name": "Approval",
      "type": "event"
    },
    {
      "anonymous": false,
      "inputs": [
        {
          "indexed": true,
          "internalType": "address",
          "name": "owner",
          "type": "address"
        },
        {
          "indexed": true,
          "internalType": "address",
          "name": "operator",
          "type": "address"
        },
        {
          "indexed": false,
          "internalType": "bool",
          "name": "approved",
          "type": "bool"
        }
      ],
      "name": "ApprovalForAll",
      "type": "event"
    },
    {
      "anonymous": false,
      "inputs": [
        {
          "indexed": false,
          "internalType": "address",
          "name": "sender",
          "type": "address"
        },
        {
          "indexed": false,
          "internalType": "uint256",
          "name": "tokenId",
          "type": "uint256"
        }
      ],
      "name": "NewEpicNFTMinted",
      "type": "event"
    },
    {
      "anonymous": false,
      "inputs": [
        {
          "indexed": true,
          "internalType": "address",
          "name": "from",
          "type": "address"
        },
        {
          "indexed": true,
          "internalType": "address",
          "name": "to",
          "type": "address"
        },
        {
          "indexed": true,
          "internalType": "uint256",
          "name": "tokenId",
          "type": "uint256"
        }
      ],
      "name": "Transfer",
      "type": "event"
    },
    {
      "inputs": [],
      "name": "MAX_TOKENS",
      "outputs": [
        {
          "internalType": "uint256",
          "name": "",
          "type": "uint256"
        }
      ],
      "stateMutability": "view",
      "type": "function"
    },
    {
      "inputs": [
        {
          "internalType": "address",
          "name": "to",
          "type": "address"
        },
        {
          "internalType": "uint256",
          "name": "tokenId",
          "type": "uint256"
        }
      ],
      "name": "approve",
      "outputs": [],
      "stateMutability": "nonpayable",
      "type": "function"
    },
    {
      "inputs": [
        {
          "internalType": "address",
          "name": "owner",
          "type": "address"
        }
      ],
      "name": "balanceOf",
      "outputs": [
        {
          "internalType": "uint256",
          "name": "",
          "type": "uint256"
        }
      ],
      "stateMutability": "view",
      "type": "function"
    },
    {
      "inputs": [
        {
          "internalType": "uint256",
          "name": "tokenId",
          "type": "uint256"
        }
      ],
      "name": "getApproved",
      "outputs": [
        {
          "internalType": "address",
          "name": "",
          "type": "address"
        }
      ],
      "stateMutability": "view",
      "type": "function"
    },
    {
      "inputs": [],
      "name": "getTotalNFTsMintedSoFar",
      "outputs": [
        {
          "internalType": "uint256",
          "name": "",
          "type": "uint256"
        }
      ],
      "stateMutability": "view",
      "type": "function"
    },
    {
      "inputs": [
        {
          "internalType": "address",
          "name": "owner",
          "type": "address"
        },
        {
          "internalType": "address",
          "name": "operator",
          "type": "address"
        }
      ],
      "name": "isApprovedForAll",
      "outputs": [
        {
          "internalType": "bool",
          "name": "",
          "type": "bool"
        }
      ],
      "stateMutability": "view",
      "type": "function"
    },
    {
      "inputs": [],
      "name": "makeAnEpicNFT",
      "outputs": [],
      "stateMutability": "nonpayable",
      "type": "function"
    },
    {
      "inputs": [],
      "name": "name",
      "outputs": [
        {
          "internalType": "string",
          "name": "",
          "type": "string"
        }
      ],
      "stateMutability": "view",
      "type": "function"
    },
    {
      "inputs": [
        {
          "internalType": "uint256",
          "name": "tokenId",
          "type": "uint256"
        }
      ],
      "name": "ownerOf",
      "outputs": [
        {
          "internalType": "address",
          "name": "",
          "type": "address"
        }
      ],
      "stateMutability": "view",
      "type": "function"
    },
    {
      "inputs": [
        {
          "internalType": "uint256",
          "name": "tokenId",
          "type": "uint256"
        }
      ],
      "name": "pickRandomColor",
      "outputs": [
        {
          "internalType": "string",
          "name": "",
          "type": "string"
        }
      ],
      "stateMutability": "view",
      "type": "function"
    },
    {
      "inputs": [
        {
          "internalType": "uint256",
          "name": "tokenId",
          "type": "uint256"
        }
      ],
      "name": "pickRandomFirstWord",
      "outputs": [
        {
          "internalType": "string",
          "name": "",
          "type": "string"
        }
      ],
      "stateMutability": "view",
      "type": "function"
    },
    {
      "inputs": [
        {
          "internalType": "uint256",
          "name": "tokenId",
          "type": "uint256"
        }
      ],
      "name": "pickRandomSecondWord",
      "outputs": [
        {
          "internalType": "string",
          "name": "",
          "type": "string"
        }
      ],
      "stateMutability": "view",
      "type": "function"
    },
    {
      "inputs": [
        {
          "internalType": "uint256",
          "name": "tokenId",
          "type": "uint256"
        }
      ],
      "name": "pickRandomThirdWord",
      "outputs": [
        {
          "internalType": "string",
          "name": "",
          "type": "string"
        }
      ],
      "stateMutability": "view",
      "type": "function"
    },
    {
      "inputs": [
        {
          "internalType": "address",
          "name": "from",
          "type": "address"
        },
        {
          "internalType": "address",
          "name": "to",
          "type": "address"
        },
        {
          "internalType": "uint256",
          "name": "tokenId",
          "type": "uint256"
        }
      ],
      "name": "safeTransferFrom",
      "outputs": [],
      "stateMutability": "nonpayable",
      "type": "function"
    },
    {
      "inputs": [
        {
          "internalType": "address",
          "name": "from",
          "type": "address"
        },
        {
          "internalType": "address",
          "name": "to",
          "type": "address"
        },
        {
          "internalType": "uint256",
          "name": "tokenId",
          "type": "uint256"
        },
        {
          "internalType": "bytes",
          "name": "_data",
          "type": "bytes"
        }
      ],
      "name": "safeTransferFrom",
      "outputs": [],
      "stateMutability": "nonpayable",
      "type": "function"
    },
    {
      "inputs": [
        {
          "internalType": "address",
          "name": "operator",
          "type": "address"
        },
        {
          "internalType": "bool",
          "name": "approved",
          "type": "bool"
        }
      ],
      "name": "setApprovalForAll",
      "outputs": [],
      "stateMutability": "nonpayable",
      "type": "function"
    },
    {
      "inputs": [
        {
          "internalType": "bytes4",
          "name": "interfaceId",
          "type": "bytes4"
        }
      ],
      "name": "supportsInterface",
      "outputs": [
        {
          "internalType": "bool",
          "name": "",
          "type": "bool"
        }
      ],
      "stateMutability": "view",
      "type": "function"
    },
    {
      "inputs": [],
      "name": "symbol",
      "outputs": [
        {
          "internalType": "string",
          "name": "",
          "type": "string"
        }
      ],
      "stateMutability": "view",
      "type": "function"
    },
    {
      "inputs": [
        {
          "internalType": "uint256",
          "name": "tokenId",
          "type": "uint256"
        }
      ],
      "name": "tokenURI",
      "outputs": [
        {
          "internalType": "string",
          "name": "",
          "type": "string"
        }
      ],
      "stateMutability": "view",
      "type": "function"
    },
    {
      "inputs": [
        {
          "internalType": "address",
          "name": "from",
          "type": "address"
        },
        {
          "internalType": "address",
          "name": "to",
          "type": "address"
        },
        {
          "internalType": "uint256",
          "name": "tokenId",
          "type": "uint256"
        }
      ],
      "name": "transferFrom",
      "outputs": [],
      "stateMutability": "nonpayable",
      "type": "function"
    }
  ],
  "bytecode": "0x608060405260405180610100016040528060d3815260200162004f0760d39139600890805190602001906200003692919062000e69565b5060405180608001604052806056815260200162004fda60569139600990805190602001906200006892919062000e69565b50604051806101a001604052806040518060400160405280600381526020017f726564000000000000000000000000000000000000000000000000000000000081525081526020016040518060400160405280600781526020017f233038433241380000000000000000000000000000000000000000000000000081525081526020016040518060400160405280600581526020017f626c61636b00000000000000000000000000000000000000000000000000000081525081526020016040518060400160405280600681526020017f79656c6c6f77000000000000000000000000000000000000000000000000000081525081526020016040518060400160405280600481526020017f626c75650000000000000000000000000000000000000000000000000000000081525081526020016040518060400160405280600581526020017f677265656e00000000000000000000000000000000000000000000000000000081525081526020016040518060400160405280600681526020017f707572706c65000000000000000000000000000000000000000000000000000081525081526020016040518060400160405280600681526020017f6f72616e6765000000000000000000000000000000000000000000000000000081525081526020016040518060400160405280600481526020017f70696e6b0000000000000000000000000000000000000000000000000000000081525081526020016040518060400160405280600581526020017f62726f776e00000000000000000000000000000000000000000000000000000081525081526020016040518060400160405280600481526020017f677265790000000000000000000000000000000000000000000000000000000081525081526020016040518060400160405280600781526020017f234646434530300000000000000000000000000000000000000000000000000081525081526020016040518060400160405280600781526020017f2330333834464500000000000000000000000000000000000000000000000000815250815250600a90600d6200038492919062000efa565b506040518061018001604052806040518060400160405280600581526020017f566972617400000000000000000000000000000000000000000000000000000081525081526020016040518060400160405280600681526020017f53616368696e000000000000000000000000000000000000000000000000000081525081526020016040518060400160405280600581526020017f44686f6e6900000000000000000000000000000000000000000000000000000081525081526020016040518060400160405280600581526020017f526f68697400000000000000000000000000000000000000000000000000000081525081526020016040518060400160405280600781526020017f5368696b6861720000000000000000000000000000000000000000000000000081525081526020016040518060400160405280600681526020017f59757672616a000000000000000000000000000000000000000000000000000081525081526020016040518060400160405280600781526020017f4b756c646565700000000000000000000000000000000000000000000000000081525081526020016040518060400160405280600681526020017f4a6164656a61000000000000000000000000000000000000000000000000000081525081526020016040518060400160405280600681526020017f41736877696e000000000000000000000000000000000000000000000000000081525081526020016040518060400160405280600681526020017f44686177616e000000000000000000000000000000000000000000000000000081525081526020016040518060400160405280600c81526020017f526176696368616e6472616e000000000000000000000000000000000000000081525081526020016040518060400160405280600681526020017f5269736861760000000000000000000000000000000000000000000000000000815250815250600b90600c6200066592919062000f61565b50604051806101a001604052806040518060400160405280600581526020017f50697a7a6100000000000000000000000000000000000000000000000000000081525081526020016040518060400160405280600681526020017f427572676572000000000000000000000000000000000000000000000000000081525081526020016040518060400160405280600881526020017f53616e647769636800000000000000000000000000000000000000000000000081525081526020016040518060400160405280600581526020017f506173746100000000000000000000000000000000000000000000000000000081525081526020016040518060400160405280600581526020017f537573686900000000000000000000000000000000000000000000000000000081525081526020016040518060400160405280600781526020017f4e6f6f646c65730000000000000000000000000000000000000000000000000081525081526020016040518060400160405280600581526020017f437572727900000000000000000000000000000000000000000000000000000081525081526020016040518060400160405280600481526020017f526963650000000000000000000000000000000000000000000000000000000081525081526020016040518060400160405280600781526020017f42697279616e690000000000000000000000000000000000000000000000000081525081526020016040518060400160405280600681526020017f50616e656572000000000000000000000000000000000000000000000000000081525081526020016040518060400160405280600581526020017f4b6562616200000000000000000000000000000000000000000000000000000081525081526020016040518060400160405280600581526020017f5461636f7300000000000000000000000000000000000000000000000000000081525081526020016040518060400160405280600581526020017f53616c6164000000000000000000000000000000000000000000000000000000815250815250600c90600d6200098192919062000efa565b50604051806101a001604052806040518060400160405280600481526020017f52616e690000000000000000000000000000000000000000000000000000000081525081526020016040518060400160405280600581526020017f4b616a6f6c00000000000000000000000000000000000000000000000000000081525081526020016040518060400160405280600881526020017f536872616464686100000000000000000000000000000000000000000000000081525081526020016040518060400160405280600881526020017f50726979616e6b6100000000000000000000000000000000000000000000000081525081526020016040518060400160405280600781526020017f416e7573686b610000000000000000000000000000000000000000000000000081525081526020016040518060400160405280600681526020017f507265657469000000000000000000000000000000000000000000000000000081525081526020016040518060400160405280600881526020017f537573686d69746100000000000000000000000000000000000000000000000081525081526020016040518060400160405280600781526020017f52616468696b610000000000000000000000000000000000000000000000000081525081526020016040518060400160405280600481526020017f416c69610000000000000000000000000000000000000000000000000000000081525081526020016040518060400160405280600581526020017f4b6961726100000000000000000000000000000000000000000000000000000081525081526020016040518060400160405280600881526020017f526173686d696b6100000000000000000000000000000000000000000000000081525081526020016040518060400160405280600481526020017f4173696e0000000000000000000000000000000000000000000000000000000081525081526020016040518060400160405280600781526020017f4172636869746100000000000000000000000000000000000000000000000000815250815250600d90600d62000c9d92919062000efa565b5034801562000cab57600080fd5b506040518060400160405280600981526020017f5371756172654e465400000000000000000000000000000000000000000000008152506040518060400160405280600681526020017f5351554152450000000000000000000000000000000000000000000000000000815250816000908051906020019062000d3092919062000e69565b50806001908051906020019062000d4992919062000e69565b50505062000d976040518060400160405280601e81526020017f54686973206973206d79204e465420636f6e74726163742e20576f616821000081525062000d9d60201b620012fb1760201c565b62001182565b62000e3d8160405160240162000db4919062001096565b6040516020818303038152906040527f41304fac000000000000000000000000000000000000000000000000000000007bffffffffffffffffffffffffffffffffffffffffffffffffffffffff19166020820180517bffffffffffffffffffffffffffffffffffffffffffffffffffffffff838183161783525050505062000e4060201b60201c565b50565b60008151905060006a636f6e736f6c652e6c6f679050602083016000808483855afa5050505050565b82805462000e77906200110c565b90600052602060002090601f01602090048101928262000e9b576000855562000ee7565b82601f1062000eb657805160ff191683800117855562000ee7565b8280016001018555821562000ee7579182015b8281111562000ee657825182559160200191906001019062000ec9565b5b50905062000ef6919062000fc8565b5090565b82805482825590600052602060002090810192821562000f4e579160200282015b8281111562000f4d57825182908051906020019062000f3c92919062000e69565b509160200191906001019062000f1b565b5b50905062000f5d919062000fe7565b5090565b82805482825590600052602060002090810192821562000fb5579160200282015b8281111562000fb457825182908051906020019062000fa392919062000e69565b509160200191906001019062000f82565b5b50905062000fc4919062000fe7565b5090565b5b8082111562000fe357600081600090555060010162000fc9565b5090565b5b808211156200100b57600081816200100191906200100f565b5060010162000fe8565b5090565b5080546200101d906200110c565b6000825580601f1062001031575062001052565b601f01602090049060005260206000209081019062001051919062000fc8565b5b50565b60006200106282620010ba565b6200106e8185620010c5565b935062001080818560208601620010d6565b6200108b8162001171565b840191505092915050565b60006020820190508181036000830152620010b2818462001055565b905092915050565b600081519050919050565b600082825260208201905092915050565b60005b83811015620010f6578082015181840152602081019050620010d9565b8381111562001106576000848401525b50505050565b600060028204905060018216806200112557607f821691505b602082108114156200113c576200113b62001142565b5b50919050565b7f4e487b7100000000000000000000000000000000000000000000000000000000600052602260045260246000fd5b6000601f19601f8301169050919050565b613d7580620011926000396000f3fe608060405234801561001057600080fd5b506004361061012c5760003560e01c806370a08231116100ad578063c575757a11610071578063c575757a14610367578063c87b56dd14610397578063de9d132f146103c7578063e985e9c5146103d1578063f47c84c5146104015761012c565b806370a08231146102b157806395d89b41146102e1578063a22cb465146102ff578063b187301f1461031b578063b88d4fde1461034b5761012c565b806323b872dd116100f457806323b872dd146101e95780632de38d681461020557806342842e0e14610235578063514dc8c6146102515780636352211e146102815761012c565b806301ffc9a714610131578063060475901461016157806306fdde031461017f578063081812fc1461019d578063095ea7b3146101cd575b600080fd5b61014b600480360381019061014691906126fb565b61041f565b6040516101589190612ecc565b60405180910390f35b610169610501565b6040516101769190613167565b60405180910390f35b610187610512565b6040516101949190612ee7565b60405180910390f35b6101b760048036038101906101b2919061274d565b6105a4565b6040516101c49190612e3c565b60405180910390f35b6101e760048036038101906101e291906126bf565b610629565b005b61020360048036038101906101fe91906125b9565b610741565b005b61021f600480360381019061021a919061274d565b6107a1565b60405161022c9190612ee7565b60405180910390f35b61024f600480360381019061024a91906125b9565b6108bf565b005b61026b6004803603810190610266919061274d565b6108df565b6040516102789190612ee7565b60405180910390f35b61029b6004803603810190610296919061274d565b6109fd565b6040516102a89190612e3c565b60405180910390f35b6102cb60048036038101906102c69190612554565b610aaf565b6040516102d89190613167565b60405180910390f35b6102e9610b67565b6040516102f69190612ee7565b60405180910390f35b61031960048036038101906103149190612683565b610bf9565b005b6103356004803603810190610330919061274d565b610c0f565b6040516103429190612ee7565b60405180910390f35b61036560048036038101906103609190612608565b610d2d565b005b610381600480360381019061037c919061274d565b610d8f565b60405161038e9190612ee7565b60405180910390f35b6103b160048036038101906103ac919061274d565b610ead565b6040516103be9190612ee7565b60405180910390f35b6103cf610fff565b005b6103eb60048036038101906103e6919061257d565b611262565b6040516103f89190612ecc565b60405180910390f35b6104096112f6565b6040516104169190613167565b60405180910390f35b60007f80ac58cd000000000000000000000000000000000000000000000000000000007bffffffffffffffffffffffffffffffffffffffffffffffffffffffff1916827bffffffffffffffffffffffffffffffffffffffffffffffffffffffff191614806104ea57507f5b5e139f000000000000000000000000000000000000000000000000000000007bffffffffffffffffffffffffffffffffffffffffffffffffffffffff1916827bffffffffffffffffffffffffffffffffffffffffffffffffffffffff1916145b806104fa57506104f982611394565b5b9050919050565b600061050d60076113fe565b905090565b606060008054610521906133fb565b80601f016020809104026020016040519081016040528092919081815260200182805461054d906133fb565b801561059a5780601f1061056f5761010080835404028352916020019161059a565b820191906000526020600020905b81548152906001019060200180831161057d57829003601f168201915b5050505050905090565b60006105af8261140c565b6105ee576040517f08c379a00000000000000000000000000000000000000000000000000000000081526004016105e5906130a7565b60405180910390fd5b6004600083815260200190815260200160002060009054906101000a900473ffffffffffffffffffffffffffffffffffffffff169050919050565b6000610634826109fd565b90508073ffffffffffffffffffffffffffffffffffffffff168373ffffffffffffffffffffffffffffffffffffffff1614156106a5576040517f08c379a000000000000000000000000000000000000000000000000000000000815260040161069c90613107565b60405180910390fd5b8073ffffffffffffffffffffffffffffffffffffffff166106c4611478565b73ffffffffffffffffffffffffffffffffffffffff1614806106f357506106f2816106ed611478565b611262565b5b610732576040517f08c379a000000000000000000000000000000000000000000000000000000000815260040161072990612fe7565b60405180910390fd5b61073c8383611480565b505050565b61075261074c611478565b82611539565b610791576040517f08c379a000000000000000000000000000000000000000000000000000000000815260040161078890613147565b60405180910390fd5b61079c838383611617565b505050565b606060006107d56107b184611873565b6040516020016107c19190612dd6565b604051602081830303815290604052611a20565b9050600b80549050816107e891906134a7565b9050600b8181548110610824577f4e487b7100000000000000000000000000000000000000000000000000000000600052603260045260246000fd5b906000526020600020018054610839906133fb565b80601f0160208091040260200160405190810160405280929190818152602001828054610865906133fb565b80156108b25780601f10610887576101008083540402835291602001916108b2565b820191906000526020600020905b81548152906001019060200180831161089557829003601f168201915b5050505050915050919050565b6108da83838360405180602001604052806000815250610d2d565b505050565b606060006109136108ef84611873565b6040516020016108ff9190612e1a565b604051602081830303815290604052611a20565b9050600a805490508161092691906134a7565b9050600a8181548110610962577f4e487b7100000000000000000000000000000000000000000000000000000000600052603260045260246000fd5b906000526020600020018054610977906133fb565b80601f01602080910402602001604051908101604052809291908181526020018280546109a3906133fb565b80156109f05780601f106109c5576101008083540402835291602001916109f0565b820191906000526020600020905b8154815290600101906020018083116109d357829003601f168201915b5050505050915050919050565b6000806002600084815260200190815260200160002060009054906101000a900473ffffffffffffffffffffffffffffffffffffffff169050600073ffffffffffffffffffffffffffffffffffffffff168173ffffffffffffffffffffffffffffffffffffffff161415610aa6576040517f08c379a0000000000000000000000000000000000000000000000000000000008152600401610a9d90613027565b60405180910390fd5b80915050919050565b60008073ffffffffffffffffffffffffffffffffffffffff168273ffffffffffffffffffffffffffffffffffffffff161415610b20576040517f08c379a0000000000000000000000000000000000000000000000000000000008152600401610b1790613007565b60405180910390fd5b600360008373ffffffffffffffffffffffffffffffffffffffff1673ffffffffffffffffffffffffffffffffffffffff168152602001908152602001600020549050919050565b606060018054610b76906133fb565b80601f0160208091040260200160405190810160405280929190818152602001828054610ba2906133fb565b8015610bef5780601f10610bc457610100808354040283529160200191610bef565b820191906000526020600020905b815481529060010190602001808311610bd257829003601f168201915b5050505050905090565b610c0b610c04611478565b8383611a53565b5050565b60606000610c43610c1f84611873565b604051602001610c2f9190612d6f565b604051602081830303815290604052611a20565b9050600c8054905081610c5691906134a7565b9050600c8181548110610c92577f4e487b7100000000000000000000000000000000000000000000000000000000600052603260045260246000fd5b906000526020600020018054610ca7906133fb565b80601f0160208091040260200160405190810160405280929190818152602001828054610cd3906133fb565b8015610d205780601f10610cf557610100808354040283529160200191610d20565b820191906000526020600020905b815481529060010190602001808311610d0357829003601f168201915b5050505050915050919050565b610d3e610d38611478565b83611539565b610d7d576040517f08c379a0000000000000000000000000000000000000000000000000000000008152600401610d7490613147565b60405180910390fd5b610d8984848484611bc0565b50505050565b60606000610dc3610d9f84611873565b604051602001610daf9190612d4d565b604051602081830303815290604052611a20565b9050600d8054905081610dd691906134a7565b9050600d8181548110610e12577f4e487b7100000000000000000000000000000000000000000000000000000000600052603260045260246000fd5b906000526020600020018054610e27906133fb565b80601f0160208091040260200160405190810160405280929190818152602001828054610e53906133fb565b8015610ea05780601f10610e7557610100808354040283529160200191610ea0565b820191906000526020600020905b815481529060010190602001808311610e8357829003601f168201915b5050505050915050919050565b6060610eb88261140c565b610ef7576040517f08c379a0000000000000000000000000000000000000000000000000000000008152600401610eee90613087565b60405180910390fd5b6000600660008481526020019081526020016000208054610f17906133fb565b80601f0160208091040260200160405190810160405280929190818152602001828054610f43906133fb565b8015610f905780601f10610f6557610100808354040283529160200191610f90565b820191906000526020600020905b815481529060010190602001808311610f7357829003601f168201915b505050505090506000610fa1611c1c565b9050600081511415610fb7578192505050610ffa565b600082511115610fec578082604051602001610fd4929190612c8d565b60405160208183030381529060405292505050610ffa565b610ff584611c33565b925050505b919050565b6000611009610501565b90506032811061104e576040517f08c379a000000000000000000000000000000000000000000000000000000000815260040161104590613127565b60405180910390fd5b6000611059826107a1565b9050600061106683610c0f565b9050600061107384610d8f565b90506000611080856108df565b9050600084848460405160200161109993929190612cb1565b604051602081830303815290604052905060006008836009846040516020016110c59493929190612ce2565b6040516020818303038152906040529050600061110a836110e584611cda565b6040516020016110f6929190612d91565b604051602081830303815290604052611cda565b905060008160405160200161111f9190612df8565b604051602081830303815290604052905061116e6040518060400160405280601581526020017f0a2d2d2d2d2d2d2d2d2d2d2d2d2d2d2d2d2d2d2d2d00000000000000000000008152506112fb565b611177816112fb565b61119f8160405160200161118b9190612d2b565b6040516020818303038152906040526112fb565b6111dd6040518060400160405280601581526020017f2d2d2d2d2d2d2d2d2d2d2d2d2d2d2d2d2d2d2d2d0a00000000000000000000008152506112fb565b6111e7338a611e98565b6111f18982611eb6565b6111fb6007611f2a565b61121e604051806060016040528060258152602001613cdb602591398a33611f40565b7febb98688741ffa4c7589bf325de30cf7becb63de567842e1ccdb6cb949fdc82c338a60405161124f929190612ea3565b60405180910390a1505050505050505050565b6000600560008473ffffffffffffffffffffffffffffffffffffffff1673ffffffffffffffffffffffffffffffffffffffff16815260200190815260200160002060008373ffffffffffffffffffffffffffffffffffffffff1673ffffffffffffffffffffffffffffffffffffffff16815260200190815260200160002060009054906101000a900460ff16905092915050565b603281565b6113918160405160240161130f9190612ee7565b6040516020818303038152906040527f41304fac000000000000000000000000000000000000000000000000000000007bffffffffffffffffffffffffffffffffffffffffffffffffffffffff19166020820180517bffffffffffffffffffffffffffffffffffffffffffffffffffffffff8381831617835250505050611fdf565b50565b60007f01ffc9a7000000000000000000000000000000000000000000000000000000007bffffffffffffffffffffffffffffffffffffffffffffffffffffffff1916827bffffffffffffffffffffffffffffffffffffffffffffffffffffffff1916149050919050565b600081600001549050919050565b60008073ffffffffffffffffffffffffffffffffffffffff166002600084815260200190815260200160002060009054906101000a900473ffffffffffffffffffffffffffffffffffffffff1673ffffffffffffffffffffffffffffffffffffffff1614159050919050565b600033905090565b816004600083815260200190815260200160002060006101000a81548173ffffffffffffffffffffffffffffffffffffffff021916908373ffffffffffffffffffffffffffffffffffffffff160217905550808273ffffffffffffffffffffffffffffffffffffffff166114f3836109fd565b73ffffffffffffffffffffffffffffffffffffffff167f8c5be1e5ebec7d5bd14f71427d1e84f3dd0314c0f7b2291e5b200ac8c7c3b92560405160405180910390a45050565b60006115448261140c565b611583576040517f08c379a000000000000000000000000000000000000000000000000000000000815260040161157a90612fc7565b60405180910390fd5b600061158e836109fd565b90508073ffffffffffffffffffffffffffffffffffffffff168473ffffffffffffffffffffffffffffffffffffffff1614806115fd57508373ffffffffffffffffffffffffffffffffffffffff166115e5846105a4565b73ffffffffffffffffffffffffffffffffffffffff16145b8061160e575061160d8185611262565b5b91505092915050565b8273ffffffffffffffffffffffffffffffffffffffff16611637826109fd565b73ffffffffffffffffffffffffffffffffffffffff161461168d576040517f08c379a0000000000000000000000000000000000000000000000000000000008152600401611684906130c7565b60405180910390fd5b600073ffffffffffffffffffffffffffffffffffffffff168273ffffffffffffffffffffffffffffffffffffffff1614156116fd576040517f08c379a00000000000000000000000000000000000000000000000000000000081526004016116f490612f87565b60405180910390fd5b611708838383612008565b611713600082611480565b6001600360008573ffffffffffffffffffffffffffffffffffffffff1673ffffffffffffffffffffffffffffffffffffffff16815260200190815260200160002060008282546117639190613311565b925050819055506001600360008473ffffffffffffffffffffffffffffffffffffffff1673ffffffffffffffffffffffffffffffffffffffff16815260200190815260200160002060008282546117ba9190613230565b92505081905550816002600083815260200190815260200160002060006101000a81548173ffffffffffffffffffffffffffffffffffffffff021916908373ffffffffffffffffffffffffffffffffffffffff160217905550808273ffffffffffffffffffffffffffffffffffffffff168473ffffffffffffffffffffffffffffffffffffffff167fddf252ad1be2c89b69c2b068fc378daa952ba7f163c4a11628f55a4df523b3ef60405160405180910390a4505050565b606060008214156118bb576040518060400160405280600181526020017f30000000000000000000000000000000000000000000000000000000000000008152509050611a1b565b600082905060005b600082146118ed5780806118d69061345e565b915050600a826118e69190613286565b91506118c3565b60008167ffffffffffffffff81111561192f577f4e487b7100000000000000000000000000000000000000000000000000000000600052604160045260246000fd5b6040519080825280601f01601f1916602001820160405280156119615781602001600182028036833780820191505090505b5090505b60008514611a145760018261197a9190613311565b9150600a8561198991906134a7565b60306119959190613230565b60f81b8183815181106119d1577f4e487b7100000000000000000000000000000000000000000000000000000000600052603260045260246000fd5b60200101907effffffffffffffffffffffffffffffffffffffffffffffffffffffffffffff1916908160001a905350600a85611a0d9190613286565b9450611965565b8093505050505b919050565b600081604051602001611a339190612c76565b6040516020818303038152906040528051906020012060001c9050919050565b8173ffffffffffffffffffffffffffffffffffffffff168373ffffffffffffffffffffffffffffffffffffffff161415611ac2576040517f08c379a0000000000000000000000000000000000000000000000000000000008152600401611ab990612fa7565b60405180910390fd5b80600560008573ffffffffffffffffffffffffffffffffffffffff1673ffffffffffffffffffffffffffffffffffffffff16815260200190815260200160002060008473ffffffffffffffffffffffffffffffffffffffff1673ffffffffffffffffffffffffffffffffffffffff16815260200190815260200160002060006101000a81548160ff0219169083151502179055508173ffffffffffffffffffffffffffffffffffffffff168373ffffffffffffffffffffffffffffffffffffffff167f17307eab39ab6107e8899845ad3d59bd9653f200f220920489ca2b5937696c3183604051611bb39190612ecc565b60405180910390a3505050565b611bcb848484611617565b611bd78484848461200d565b611c16576040517f08c379a0000000000000000000000000000000000000000000000000000000008152600401611c0d90612f47565b60405180910390fd5b50505050565b606060405180602001604052806000815250905090565b6060611c3e8261140c565b611c7d576040517f08c379a0000000000000000000000000000000000000000000000000000000008152600401611c74906130e7565b60405180910390fd5b6000611c87611c1c565b90506000815111611ca75760405180602001604052806000815250611cd2565b80611cb184611873565b604051602001611cc2929190612c8d565b6040516020818303038152906040525b915050919050565b60606000825190506000811415611d035760405180602001604052806000815250915050611e93565b60006003600283611d149190613230565b611d1e9190613286565b6004611d2a91906132b7565b90506000602082611d3b9190613230565b67ffffffffffffffff811115611d7a577f4e487b7100000000000000000000000000000000000000000000000000000000600052604160045260246000fd5b6040519080825280601f01601f191660200182016040528015611dac5781602001600182028036833780820191505090505b5090506000604051806060016040528060408152602001613d00604091399050600181016020830160005b86811015611e505760038101905062ffffff818a015116603f8160121c168401518060081b905060ff603f83600c1c1686015116810190508060081b905060ff603f8360061c1686015116810190508060081b905060ff603f831686015116810190508060e01b90508084526004840193505050611dd7565b506003860660018114611e6a5760028114611e7a57611e85565b613d3d60f01b6002830352611e85565b603d60f81b60018303525b508484525050819450505050505b919050565b611eb28282604051806020016040528060008152506121a4565b5050565b611ebf8261140c565b611efe576040517f08c379a0000000000000000000000000000000000000000000000000000000008152600401611ef590613047565b60405180910390fd5b80600660008481526020019081526020016000209080519060200190611f259291906123e0565b505050565b6001816000016000828254019250508190555050565b611fda838383604051602401611f5893929190612f09565b6040516020818303038152906040527fe3849f79000000000000000000000000000000000000000000000000000000007bffffffffffffffffffffffffffffffffffffffffffffffffffffffff19166020820180517bffffffffffffffffffffffffffffffffffffffffffffffffffffffff8381831617835250505050611fdf565b505050565b60008151905060006a636f6e736f6c652e6c6f679050602083016000808483855afa5050505050565b505050565b600061202e8473ffffffffffffffffffffffffffffffffffffffff166121ff565b15612197578373ffffffffffffffffffffffffffffffffffffffff1663150b7a02612057611478565b8786866040518563ffffffff1660e01b81526004016120799493929190612e57565b602060405180830381600087803b15801561209357600080fd5b505af19250505080156120c457506040513d601f19601f820116820180604052508101906120c19190612724565b60015b612147573d80600081146120f4576040519150601f19603f3d011682016040523d82523d6000602084013e6120f9565b606091505b5060008151141561213f576040517f08c379a000000000000000000000000000000000000000000000000000000000815260040161213690612f47565b60405180910390fd5b805181602001fd5b63150b7a0260e01b7bffffffffffffffffffffffffffffffffffffffffffffffffffffffff1916817bffffffffffffffffffffffffffffffffffffffffffffffffffffffff19161491505061219c565b600190505b949350505050565b6121ae8383612212565b6121bb600084848461200d565b6121fa576040517f08c379a00000000000000000000000000000000000000000000000000000000081526004016121f190612f47565b60405180910390fd5b505050565b600080823b905060008111915050919050565b600073ffffffffffffffffffffffffffffffffffffffff168273ffffffffffffffffffffffffffffffffffffffff161415612282576040517f08c379a000000000000000000000000000000000000000000000000000000000815260040161227990613067565b60405180910390fd5b61228b8161140c565b156122cb576040517f08c379a00000000000000000000000000000000000000000000000000000000081526004016122c290612f67565b60405180910390fd5b6122d760008383612008565b6001600360008473ffffffffffffffffffffffffffffffffffffffff1673ffffffffffffffffffffffffffffffffffffffff16815260200190815260200160002060008282546123279190613230565b92505081905550816002600083815260200190815260200160002060006101000a81548173ffffffffffffffffffffffffffffffffffffffff021916908373ffffffffffffffffffffffffffffffffffffffff160217905550808273ffffffffffffffffffffffffffffffffffffffff16600073ffffffffffffffffffffffffffffffffffffffff167fddf252ad1be2c89b69c2b068fc378daa952ba7f163c4a11628f55a4df523b3ef60405160405180910390a45050565b8280546123ec906133fb565b90600052602060002090601f01602090048101928261240e5760008555612455565b82601f1061242757805160ff1916838001178555612455565b82800160010185558215612455579182015b82811115612454578251825591602001919060010190612439565b5b5090506124629190612466565b5090565b5b8082111561247f576000816000905550600101612467565b5090565b6000612496612491846131a7565b613182565b9050828152602081018484840111156124ae57600080fd5b6124b98482856133b9565b509392505050565b6000813590506124d081613c7e565b92915050565b6000813590506124e581613c95565b92915050565b6000813590506124fa81613cac565b92915050565b60008151905061250f81613cac565b92915050565b600082601f83011261252657600080fd5b8135612536848260208601612483565b91505092915050565b60008135905061254e81613cc3565b92915050565b60006020828403121561256657600080fd5b6000612574848285016124c1565b91505092915050565b6000806040838503121561259057600080fd5b600061259e858286016124c1565b92505060206125af858286016124c1565b9150509250929050565b6000806000606084860312156125ce57600080fd5b60006125dc868287016124c1565b93505060206125ed868287016124c1565b92505060406125fe8682870161253f565b9150509250925092565b6000806000806080858703121561261e57600080fd5b600061262c878288016124c1565b945050602061263d878288016124c1565b935050604061264e8782880161253f565b925050606085013567ffffffffffffffff81111561266b57600080fd5b61267787828801612515565b91505092959194509250565b6000806040838503121561269657600080fd5b60006126a4858286016124c1565b92505060206126b5858286016124d6565b9150509250929050565b600080604083850312156126d257600080fd5b60006126e0858286016124c1565b92505060206126f18582860161253f565b9150509250929050565b60006020828403121561270d57600080fd5b600061271b848285016124eb565b91505092915050565b60006020828403121561273657600080fd5b600061274484828501612500565b91505092915050565b60006020828403121561275f57600080fd5b600061276d8482850161253f565b91505092915050565b61277f81613345565b82525050565b61278e81613357565b82525050565b600061279f826131ed565b6127a98185613203565b93506127b98185602086016133c8565b6127c281613594565b840191505092915050565b60006127d8826131f8565b6127e28185613214565b93506127f28185602086016133c8565b6127fb81613594565b840191505092915050565b6000612811826131f8565b61281b8185613225565b935061282b8185602086016133c8565b80840191505092915050565b60008154612844816133fb565b61284e8186613225565b94506001821660008114612869576001811461287a576128ad565b60ff198316865281860193506128ad565b612883856131d8565b60005b838110156128a557815481890152600182019150602081019050612886565b838801955050505b50505092915050565b60006128c3602583613225565b91506128ce826135a5565b602582019050919050565b60006128e6603283613214565b91506128f1826135f4565b604082019050919050565b6000612909601c83613214565b915061291482613643565b602082019050919050565b600061292c600a83613225565b91506129378261366c565b600a82019050919050565b600061294f602483613214565b915061295a82613695565b604082019050919050565b6000612972601983613214565b915061297d826136e4565b602082019050919050565b6000612995606383613225565b91506129a08261370d565b606382019050919050565b60006129b8600b83613225565b91506129c3826137a8565b600b82019050919050565b60006129db602c83613214565b91506129e6826137d1565b604082019050919050565b60006129fe600d83613225565b9150612a0982613820565b600d82019050919050565b6000612a21603883613214565b9150612a2c82613849565b604082019050919050565b6000612a44602a83613214565b9150612a4f82613898565b604082019050919050565b6000612a67602983613214565b9150612a72826138e7565b604082019050919050565b6000612a8a602e83613214565b9150612a9582613936565b604082019050919050565b6000612aad600283613225565b9150612ab882613985565b600282019050919050565b6000612ad0602083613214565b9150612adb826139ae565b602082019050919050565b6000612af3603183613214565b9150612afe826139d7565b604082019050919050565b6000612b16602c83613214565b9150612b2182613a26565b604082019050919050565b6000612b39602983613214565b9150612b4482613a75565b604082019050919050565b6000612b5c602f83613214565b9150612b6782613ac4565b604082019050919050565b6000612b7f600a83613225565b9150612b8a82613b13565b600a82019050919050565b6000612ba2602183613214565b9150612bad82613b3c565b604082019050919050565b6000612bc5601683613214565b9150612bd082613b8b565b602082019050919050565b6000612be8600a83613225565b9150612bf382613bb4565b600a82019050919050565b6000612c0b601d83613225565b9150612c1682613bdd565b601d82019050919050565b6000612c2e603183613214565b9150612c3982613c06565b604082019050919050565b6000612c51600583613225565b9150612c5c82613c55565b600582019050919050565b612c70816133af565b82525050565b6000612c828284612806565b915081905092915050565b6000612c998285612806565b9150612ca58284612806565b91508190509392505050565b6000612cbd8286612806565b9150612cc98285612806565b9150612cd58284612806565b9150819050949350505050565b6000612cee8287612837565b9150612cfa8286612806565b9150612d068285612837565b9150612d128284612806565b9150612d1d826129f1565b915081905095945050505050565b6000612d36826128b6565b9150612d428284612806565b915081905092915050565b6000612d588261291f565b9150612d648284612806565b915081905092915050565b6000612d7a826129ab565b9150612d868284612806565b915081905092915050565b6000612d9c82612b72565b9150612da88285612806565b9150612db382612988565b9150612dbf8284612806565b9150612dca82612aa0565b91508190509392505050565b6000612de182612bdb565b9150612ded8284612806565b915081905092915050565b6000612e0382612bfe565b9150612e0f8284612806565b915081905092915050565b6000612e2582612c44565b9150612e318284612806565b915081905092915050565b6000602082019050612e516000830184612776565b92915050565b6000608082019050612e6c6000830187612776565b612e796020830186612776565b612e866040830185612c67565b8181036060830152612e988184612794565b905095945050505050565b6000604082019050612eb86000830185612776565b612ec56020830184612c67565b9392505050565b6000602082019050612ee16000830184612785565b92915050565b60006020820190508181036000830152612f0181846127cd565b905092915050565b60006060820190508181036000830152612f2381866127cd565b9050612f326020830185612c67565b612f3f6040830184612776565b949350505050565b60006020820190508181036000830152612f60816128d9565b9050919050565b60006020820190508181036000830152612f80816128fc565b9050919050565b60006020820190508181036000830152612fa081612942565b9050919050565b60006020820190508181036000830152612fc081612965565b9050919050565b60006020820190508181036000830152612fe0816129ce565b9050919050565b6000602082019050818103600083015261300081612a14565b9050919050565b6000602082019050818103600083015261302081612a37565b9050919050565b6000602082019050818103600083015261304081612a5a565b9050919050565b6000602082019050818103600083015261306081612a7d565b9050919050565b6000602082019050818103600083015261308081612ac3565b9050919050565b600060208201905081810360008301526130a081612ae6565b9050919050565b600060208201905081810360008301526130c081612b09565b9050919050565b600060208201905081810360008301526130e081612b2c565b9050919050565b6000602082019050818103600083015261310081612b4f565b9050919050565b6000602082019050818103600083015261312081612b95565b9050919050565b6000602082019050818103600083015261314081612bb8565b9050919050565b6000602082019050818103600083015261316081612c21565b9050919050565b600060208201905061317c6000830184612c67565b92915050565b600061318c61319d565b9050613198828261342d565b919050565b6000604051905090565b600067ffffffffffffffff8211156131c2576131c1613565565b5b6131cb82613594565b9050602081019050919050565b60008190508160005260206000209050919050565b600081519050919050565b600081519050919050565b600082825260208201905092915050565b600082825260208201905092915050565b600081905092915050565b600061323b826133af565b9150613246836133af565b9250827fffffffffffffffffffffffffffffffffffffffffffffffffffffffffffffffff0382111561327b5761327a6134d8565b5b828201905092915050565b6000613291826133af565b915061329c836133af565b9250826132ac576132ab613507565b5b828204905092915050565b60006132c2826133af565b91506132cd836133af565b9250817fffffffffffffffffffffffffffffffffffffffffffffffffffffffffffffffff0483118215151615613306576133056134d8565b5b828202905092915050565b600061331c826133af565b9150613327836133af565b92508282101561333a576133396134d8565b5b828203905092915050565b60006133508261338f565b9050919050565b60008115159050919050565b60007fffffffff0000000000000000000000000000000000000000000000000000000082169050919050565b600073ffffffffffffffffffffffffffffffffffffffff82169050919050565b6000819050919050565b82818337600083830152505050565b60005b838110156133e65780820151818401526020810190506133cb565b838111156133f5576000848401525b50505050565b6000600282049050600182168061341357607f821691505b6020821081141561342757613426613536565b5b50919050565b61343682613594565b810181811067ffffffffffffffff8211171561345557613454613565565b5b80604052505050565b6000613469826133af565b91507fffffffffffffffffffffffffffffffffffffffffffffffffffffffffffffffff82141561349c5761349b6134d8565b5b600182019050919050565b60006134b2826133af565b91506134bd836133af565b9250826134cd576134cc613507565b5b828206905092915050565b7f4e487b7100000000000000000000000000000000000000000000000000000000600052601160045260246000fd5b7f4e487b7100000000000000000000000000000000000000000000000000000000600052601260045260246000fd5b7f4e487b7100000000000000000000000000000000000000000000000000000000600052602260045260246000fd5b7f4e487b7100000000000000000000000000000000000000000000000000000000600052604160045260246000fd5b6000601f19601f8301169050919050565b7f68747470733a2f2f6e6674707265766965772e30786465762e636f6465732f3f60008201527f636f64653d000000000000000000000000000000000000000000000000000000602082015250565b7f4552433732313a207472616e7366657220746f206e6f6e20455243373231526560008201527f63656976657220696d706c656d656e7465720000000000000000000000000000602082015250565b7f4552433732313a20746f6b656e20616c7265616479206d696e74656400000000600082015250565b7f54484952445f574f524400000000000000000000000000000000000000000000600082015250565b7f4552433732313a207472616e7366657220746f20746865207a65726f2061646460008201527f7265737300000000000000000000000000000000000000000000000000000000602082015250565b7f4552433732313a20617070726f766520746f2063616c6c657200000000000000600082015250565b7f222c20226465736372697074696f6e223a20224120686967686c79206163636c60008201527f61696d656420636f6c6c656374696f6e206f6620737175617265732e222c202260208201527f696d616765223a2022646174613a696d6167652f7376672b786d6c3b6261736560408201527f36342c0000000000000000000000000000000000000000000000000000000000606082015250565b7f5345434f4e445f574f5244000000000000000000000000000000000000000000600082015250565b7f4552433732313a206f70657261746f7220717565727920666f72206e6f6e657860008201527f697374656e7420746f6b656e0000000000000000000000000000000000000000602082015250565b7f3c2f746578743e3c2f7376673e00000000000000000000000000000000000000600082015250565b7f4552433732313a20617070726f76652063616c6c6572206973206e6f74206f7760008201527f6e6572206e6f7220617070726f76656420666f7220616c6c0000000000000000602082015250565b7f4552433732313a2062616c616e636520717565727920666f7220746865207a6560008201527f726f206164647265737300000000000000000000000000000000000000000000602082015250565b7f4552433732313a206f776e657220717565727920666f72206e6f6e657869737460008201527f656e7420746f6b656e0000000000000000000000000000000000000000000000602082015250565b7f45524337323155524953746f726167653a2055524920736574206f66206e6f6e60008201527f6578697374656e7420746f6b656e000000000000000000000000000000000000602082015250565b7f227d000000000000000000000000000000000000000000000000000000000000600082015250565b7f4552433732313a206d696e7420746f20746865207a65726f2061646472657373600082015250565b7f45524337323155524953746f726167653a2055524920717565727920666f722060008201527f6e6f6e6578697374656e7420746f6b656e000000000000000000000000000000602082015250565b7f4552433732313a20617070726f76656420717565727920666f72206e6f6e657860008201527f697374656e7420746f6b656e0000000000000000000000000000000000000000602082015250565b7f4552433732313a207472616e73666572206f6620746f6b656e2074686174206960008201527f73206e6f74206f776e0000000000000000000000000000000000000000000000602082015250565b7f4552433732314d657461646174613a2055524920717565727920666f72206e6f60008201527f6e6578697374656e7420746f6b656e0000000000000000000000000000000000602082015250565b7f7b226e616d65223a202200000000000000000000000000000000000000000000600082015250565b7f4552433732313a20617070726f76616c20746f2063757272656e74206f776e6560008201527f7200000000000000000000000000000000000000000000000000000000000000602082015250565b7f546f6f206d616e79204e46547320616c72656164792100000000000000000000600082015250565b7f46495253545f574f524400000000000000000000000000000000000000000000600082015250565b7f646174613a6170706c69636174696f6e2f6a736f6e3b6261736536342c000000600082015250565b7f4552433732313a207472616e736665722063616c6c6572206973206e6f74206f60008201527f776e6572206e6f7220617070726f766564000000000000000000000000000000602082015250565b7f434f4c4f52000000000000000000000000000000000000000000000000000000600082015250565b613c8781613345565b8114613c9257600080fd5b50565b613c9e81613357565b8114613ca957600080fd5b50565b613cb581613363565b8114613cc057600080fd5b50565b613ccc816133af565b8114613cd757600080fd5b5056fe416e204e465420772f20494420257320686173206265656e206d696e74656420746f2025734142434445464748494a4b4c4d4e4f505152535455565758595a6162636465666768696a6b6c6d6e6f707172737475767778797a303132333435363738392b2fa26469706673582212202cd5c8f42121cc5b90cb6ca125bf3433b79fc266a13c5cf7dfd898bbd2ab6ef164736f6c634300080400333c73766720786d6c6e733d27687474703a2f2f7777772e77332e6f72672f323030302f73766727207072657365727665417370656374526174696f3d27784d696e594d696e206d656574272076696577426f783d273020302033353020333530273e3c7374796c653e2e62617365207b2066696c6c3a2077686974653b20666f6e742d66616d696c793a2073657269663b20666f6e742d73697a653a20323470783b207d3c2f7374796c653e3c726563742077696474683d273130302527206865696768743d2731303025272066696c6c3d27272f3e3c7465787420783d273530252720793d273530252720636c6173733d27626173652720646f6d696e616e742d626173656c696e653d276d6964646c652720746578742d616e63686f723d276d6964646c65273e",
  "linkReferences": {},
  "deployedLinkReferences": {}
}